{
  "abi": [
    {
      "inputs": [
        {
          "internalType": "uint256",
          "name": "_start_date",
          "type": "uint256"
        },
        {
          "internalType": "uint256",
          "name": "_end_date",
          "type": "uint256"
        },
        {
          "internalType": "uint256[]",
          "name": "_candidates",
          "type": "uint256[]"
        }
      ],
      "stateMutability": "nonpayable",
      "type": "constructor"
    },
    {
      "inputs": [
        {
          "internalType": "uint256",
          "name": "voter_id",
          "type": "uint256"
        },
        {
          "internalType": "uint256",
          "name": "candidate_id",
          "type": "uint256"
        }
      ],
      "name": "create_vote",
      "outputs": [],
      "stateMutability": "nonpayable",
      "type": "function"
    },
    {
      "inputs": [
        {
          "internalType": "uint256",
          "name": "candidate_id",
          "type": "uint256"
        }
      ],
      "name": "get_vote",
      "outputs": [
        {
          "internalType": "uint256",
          "name": "",
          "type": "uint256"
        }
      ],
      "stateMutability": "view",
      "type": "function"
    },
    {
      "inputs": [
        {
          "internalType": "uint256",
          "name": "",
          "type": "uint256"
        }
      ],
      "name": "results",
      "outputs": [
        {
          "internalType": "uint256",
          "name": "",
          "type": "uint256"
        }
      ],
      "stateMutability": "view",
      "type": "function"
    },
    {
      "inputs": [
        {
          "internalType": "uint256",
          "name": "",
          "type": "uint256"
        }
      ],
      "name": "voters",
      "outputs": [
        {
          "internalType": "uint256",
          "name": "",
          "type": "uint256"
        }
      ],
      "stateMutability": "view",
      "type": "function"
    },
    {
      "inputs": [],
      "name": "voters_count",
      "outputs": [
        {
          "internalType": "uint256",
          "name": "",
          "type": "uint256"
        }
      ],
      "stateMutability": "view",
      "type": "function"
    },
    {
      "inputs": [
        {
          "internalType": "uint256",
          "name": "",
          "type": "uint256"
        }
      ],
      "name": "votes",
      "outputs": [
        {
          "internalType": "uint256",
          "name": "",
          "type": "uint256"
        }
      ],
      "stateMutability": "view",
      "type": "function"
    }
  ],
  "bytecode": "608060405234801561001057600080fd5b506040516104cb3803806104cb83398101604081905261002f916100dd565b600080546001600160a01b0319163317905560018390556002829055805161005e906006906020840190610067565b505050506101b1565b8280548282559060005260206000209081019282156100a2579160200282015b828111156100a2578251825591602001919060010190610087565b506100ae9291506100b2565b5090565b5b808211156100ae57600081556001016100b3565b634e487b7160e01b600052604160045260246000fd5b6000806000606084860312156100f257600080fd5b835160208086015160408701519295509350906001600160401b038082111561011a57600080fd5b818701915087601f83011261012e57600080fd5b815181811115610140576101406100c7565b8060051b604051601f19603f83011681018181108582111715610165576101656100c7565b60405291825284820192508381018501918a83111561018357600080fd5b938501935b828510156101a157845184529385019392850192610188565b8096505050505050509250925092565b61030b806101c06000396000f3fe608060405234801561001057600080fd5b506004361061007d5760003560e01c80635df813301161005b5780635df81330146100cf57806388b87a74146100ef578063b87dac5214610104578063da58c7d91461012457600080fd5b80631b0c27da146100825780633477ee2e146100b457806340dec728146100c7575b600080fd5b6100a2610090366004610271565b60046020526000908152604090205481565b60405190815260200160405180910390f35b6100a26100c2366004610271565b610137565b6005546100a2565b6100a26100dd366004610271565b60036020526000908152604090205481565b6101026100fd36600461028a565b610158565b005b6100a2610112366004610271565b60009081526004602052604090205490565b6100a2610132366004610271565b610261565b6006818154811061014757600080fd5b600091825260209091200154905081565b6000546001600160a01b031633146101ac5760405162461bcd60e51b81526020600482015260126024820152712832b936b4b9b9b4b7b7103232b734b2b21760711b60448201526064015b60405180910390fd5b600082815260036020526040902054156101fe5760405162461bcd60e51b81526020600482015260136024820152722ab9b2b91030b63932b0b23c903b37ba32b21760691b60448201526064016101a3565b60058054600181019091557f036b6384b5eca791c62761152d0c79bb0604c104a5fb6f4eb0703f3154bb3db001829055600082815260036020908152604080832084905583835260049091528120805491610258836102ac565b91905055505050565b6005818154811061014757600080fd5b60006020828403121561028357600080fd5b5035919050565b6000806040838503121561029d57600080fd5b50508035926020909101359150565b60006000198214156102ce57634e487b7160e01b600052601160045260246000fd5b506001019056fea26469706673582212200710048d9392c6c3adc204e3fbfaba6ccf62d96d0686615d4f9008fb46f9a4c064736f6c634300080b0033",
  "bytecodeSha1": "d6b2ee43b5d97ff3805e36ac6e440fcf8e2d8b0d",
  "compiler": {
    "evm_version": "istanbul",
    "optimizer": {
      "enabled": true,
      "runs": 200
    },
    "version": "0.8.11+commit.d7f03943"
  },
  "contractName": "VoteStorage",
  "language": "Solidity",
  "natspec": {
    "kind": "dev",
    "methods": {},
    "version": 1
  },
  "opcodes": "PUSH1 0x80 PUSH1 0x40 MSTORE CALLVALUE DUP1 ISZERO PUSH2 0x10 JUMPI PUSH1 0x0 DUP1 REVERT JUMPDEST POP PUSH1 0x4 CALLDATASIZE LT PUSH2 0x7D JUMPI PUSH1 0x0 CALLDATALOAD PUSH1 0xE0 SHR DUP1 PUSH4 0x5DF81330 GT PUSH2 0x5B JUMPI DUP1 PUSH4 0x5DF81330 EQ PUSH2 0xCF JUMPI DUP1 PUSH4 0x88B87A74 EQ PUSH2 0xEF JUMPI DUP1 PUSH4 0xB87DAC52 EQ PUSH2 0x104 JUMPI DUP1 PUSH4 0xDA58C7D9 EQ PUSH2 0x124 JUMPI PUSH1 0x0 DUP1 REVERT JUMPDEST DUP1 PUSH4 0x1B0C27DA EQ PUSH2 0x82 JUMPI DUP1 PUSH4 0x3477EE2E EQ PUSH2 0xB4 JUMPI DUP1 PUSH4 0x40DEC728 EQ PUSH2 0xC7 JUMPI JUMPDEST PUSH1 0x0 DUP1 REVERT JUMPDEST PUSH2 0xA2 PUSH2 0x90 CALLDATASIZE PUSH1 0x4 PUSH2 0x271 JUMP JUMPDEST PUSH1 0x4 PUSH1 0x20 MSTORE PUSH1 0x0 SWAP1 DUP2 MSTORE PUSH1 0x40 SWAP1 KECCAK256 SLOAD DUP2 JUMP JUMPDEST PUSH1 0x40 MLOAD SWAP1 DUP2 MSTORE PUSH1 0x20 ADD PUSH1 0x40 MLOAD DUP1 SWAP2 SUB SWAP1 RETURN JUMPDEST PUSH2 0xA2 PUSH2 0xC2 CALLDATASIZE PUSH1 0x4 PUSH2 0x271 JUMP JUMPDEST PUSH2 0x137 JUMP JUMPDEST PUSH1 0x5 SLOAD PUSH2 0xA2 JUMP JUMPDEST PUSH2 0xA2 PUSH2 0xDD CALLDATASIZE PUSH1 0x4 PUSH2 0x271 JUMP JUMPDEST PUSH1 0x3 PUSH1 0x20 MSTORE PUSH1 0x0 SWAP1 DUP2 MSTORE PUSH1 0x40 SWAP1 KECCAK256 SLOAD DUP2 JUMP JUMPDEST PUSH2 0x102 PUSH2 0xFD CALLDATASIZE PUSH1 0x4 PUSH2 0x28A JUMP JUMPDEST PUSH2 0x158 JUMP JUMPDEST STOP JUMPDEST PUSH2 0xA2 PUSH2 0x112 CALLDATASIZE PUSH1 0x4 PUSH2 0x271 JUMP JUMPDEST PUSH1 0x0 SWAP1 DUP2 MSTORE PUSH1 0x4 PUSH1 0x20 MSTORE PUSH1 0x40 SWAP1 KECCAK256 SLOAD SWAP1 JUMP JUMPDEST PUSH2 0xA2 PUSH2 0x132 CALLDATASIZE PUSH1 0x4 PUSH2 0x271 JUMP JUMPDEST PUSH2 0x261 JUMP JUMPDEST PUSH1 0x6 DUP2 DUP2 SLOAD DUP2 LT PUSH2 0x147 JUMPI PUSH1 0x0 DUP1 REVERT JUMPDEST PUSH1 0x0 SWAP2 DUP3 MSTORE PUSH1 0x20 SWAP1 SWAP2 KECCAK256 ADD SLOAD SWAP1 POP DUP2 JUMP JUMPDEST PUSH1 0x0 SLOAD PUSH1 0x1 PUSH1 0x1 PUSH1 0xA0 SHL SUB AND CALLER EQ PUSH2 0x1AC JUMPI PUSH1 0x40 MLOAD PUSH3 0x461BCD PUSH1 0xE5 SHL DUP2 MSTORE PUSH1 0x20 PUSH1 0x4 DUP3 ADD MSTORE PUSH1 0x12 PUSH1 0x24 DUP3 ADD MSTORE PUSH18 0x2832B936B4B9B9B4B7B7103232B734B2B217 PUSH1 0x71 SHL PUSH1 0x44 DUP3 ADD MSTORE PUSH1 0x64 ADD JUMPDEST PUSH1 0x40 MLOAD DUP1 SWAP2 SUB SWAP1 REVERT JUMPDEST PUSH1 0x0 DUP3 DUP2 MSTORE PUSH1 0x3 PUSH1 0x20 MSTORE PUSH1 0x40 SWAP1 KECCAK256 SLOAD ISZERO PUSH2 0x1FE JUMPI PUSH1 0x40 MLOAD PUSH3 0x461BCD PUSH1 0xE5 SHL DUP2 MSTORE PUSH1 0x20 PUSH1 0x4 DUP3 ADD MSTORE PUSH1 0x13 PUSH1 0x24 DUP3 ADD MSTORE PUSH19 0x2AB9B2B91030B63932B0B23C903B37BA32B217 PUSH1 0x69 SHL PUSH1 0x44 DUP3 ADD MSTORE PUSH1 0x64 ADD PUSH2 0x1A3 JUMP JUMPDEST PUSH1 0x5 DUP1 SLOAD PUSH1 0x1 DUP2 ADD SWAP1 SWAP2 SSTORE PUSH32 0x36B6384B5ECA791C62761152D0C79BB0604C104A5FB6F4EB0703F3154BB3DB0 ADD DUP3 SWAP1 SSTORE PUSH1 0x0 DUP3 DUP2 MSTORE PUSH1 0x3 PUSH1 0x20 SWAP1 DUP2 MSTORE PUSH1 0x40 DUP1 DUP4 KECCAK256 DUP5 SWAP1 SSTORE DUP4 DUP4 MSTORE PUSH1 0x4 SWAP1 SWAP2 MSTORE DUP2 KECCAK256 DUP1 SLOAD SWAP2 PUSH2 0x258 DUP4 PUSH2 0x2AC JUMP JUMPDEST SWAP2 SWAP1 POP SSTORE POP POP POP JUMP JUMPDEST PUSH1 0x5 DUP2 DUP2 SLOAD DUP2 LT PUSH2 0x147 JUMPI PUSH1 0x0 DUP1 REVERT JUMPDEST PUSH1 0x0 PUSH1 0x20 DUP3 DUP5 SUB SLT ISZERO PUSH2 0x283 JUMPI PUSH1 0x0 DUP1 REVERT JUMPDEST POP CALLDATALOAD SWAP2 SWAP1 POP JUMP JUMPDEST PUSH1 0x0 DUP1 PUSH1 0x40 DUP4 DUP6 SUB SLT ISZERO PUSH2 0x29D JUMPI PUSH1 0x0 DUP1 REVERT JUMPDEST POP POP DUP1 CALLDATALOAD SWAP3 PUSH1 0x20 SWAP1 SWAP2 ADD CALLDATALOAD SWAP2 POP JUMP JUMPDEST PUSH1 0x0 PUSH1 0x0 NOT DUP3 EQ ISZERO PUSH2 0x2CE JUMPI PUSH4 0x4E487B71 PUSH1 0xE0 SHL PUSH1 0x0 MSTORE PUSH1 0x11 PUSH1 0x4 MSTORE PUSH1 0x24 PUSH1 0x0 REVERT JUMPDEST POP PUSH1 0x1 ADD SWAP1 JUMP INVALID LOG2 PUSH5 0x6970667358 0x22 SLT KECCAK256 SMOD LT DIV DUP14 SWAP4 SWAP3 0xC6 0xC3 0xAD 0xC2 DIV 0xE3 0xFB STATICCALL 0xBA PUSH13 0xCF62D96D0686615D4F9008FB46 0xF9 LOG4 0xC0 PUSH5 0x736F6C6343 STOP ADDMOD SIGNEXTEND STOP CALLER ",
  "sha1": "b17c63b6a379ba28c18a64e13627efb5ae46f29d",
  "source": "// SPDX-License-Identifier: GPL-3.0\n\npragma solidity >=0.7.0 <0.9.0;\n\n\ncontract VoteStorage {\n\n    address private owner;\n    uint private start_date;\n    uint private end_date;\n    mapping(uint256 => uint256) public votes;\n    mapping(uint256 => uint256) public results;\n    uint256[] public voters;\n    uint256[] public candidates;\n\n    constructor(uint _start_date, uint _end_date, uint256[] memory _candidates) {\n        owner = msg.sender;\n        start_date = _start_date;\n        end_date = _end_date;\n        candidates = _candidates;\n    }\n\n    modifier onlyOwner {\n        require(msg.sender == owner, \"Permission denied.\");\n        _;\n    }\n\n    function create_vote(uint256 voter_id, uint256 candidate_id) public onlyOwner {\n        require(votes[voter_id] == 0, \"User already voted.\");\n\n        // Save voter id\n        voters.push(voter_id);\n        // Save vote\n        votes[voter_id] = candidate_id;\n        // Increment candidate vote count\n        results[candidate_id]++;\n    }\n\n    function voters_count() public view returns(uint256) {\n        return voters.length;\n    }\n\n    function get_vote(uint256 candidate_id) public view returns(uint256) {\n        return results[candidate_id];\n    }\n\n}\n",
  "sourcePath": "contracts/VoteStorage.sol",
  "type": "contract"
}