{
  "abi": [
    {
      "inputs": [
        {
          "internalType": "uint256",
          "name": "_start_date",
          "type": "uint256"
        },
        {
          "internalType": "uint256",
          "name": "_end_date",
          "type": "uint256"
        },
        {
          "internalType": "uint256[]",
          "name": "_candidates",
          "type": "uint256[]"
        }
      ],
      "stateMutability": "nonpayable",
      "type": "constructor"
    },
    {
      "inputs": [
        {
          "internalType": "uint256",
          "name": "voter_id",
          "type": "uint256"
        },
        {
          "internalType": "uint256",
          "name": "candidate_id",
          "type": "uint256"
        }
      ],
      "name": "create_vote",
      "outputs": [],
      "stateMutability": "nonpayable",
      "type": "function"
    },
    {
      "inputs": [
        {
          "internalType": "uint256",
          "name": "candidate_id",
          "type": "uint256"
        }
      ],
      "name": "get_vote",
      "outputs": [
        {
          "internalType": "uint256",
          "name": "",
          "type": "uint256"
        }
      ],
      "stateMutability": "view",
      "type": "function"
    },
    {
      "inputs": [],
      "name": "voters_count",
      "outputs": [
        {
          "internalType": "uint256",
          "name": "",
          "type": "uint256"
        }
      ],
      "stateMutability": "view",
      "type": "function"
    }
  ],
  "bytecode": "608060405234801561001057600080fd5b506040516103f43803806103f483398101604081905261002f916100dd565b600080546001600160a01b0319163317905560018390556002829055805161005e906006906020840190610067565b505050506101b1565b8280548282559060005260206000209081019282156100a2579160200282015b828111156100a2578251825591602001919060010190610087565b506100ae9291506100b2565b5090565b5b808211156100ae57600081556001016100b3565b634e487b7160e01b600052604160045260246000fd5b6000806000606084860312156100f257600080fd5b835160208086015160408701519295509350906001600160401b038082111561011a57600080fd5b818701915087601f83011261012e57600080fd5b815181811115610140576101406100c7565b8060051b604051601f19603f83011681018181108582111715610165576101656100c7565b60405291825284820192508381018501918a83111561018357600080fd5b938501935b828510156101a157845184529385019392850192610188565b8096505050505050509250925092565b610234806101c06000396000f3fe608060405234801561001057600080fd5b50600436106100415760003560e01c806340dec7281461004657806388b87a741461005c578063b87dac5214610071575b600080fd5b6005545b60405190815260200160405180910390f35b61006f61006a36600461019a565b610091565b005b61004a61007f3660046101bc565b60009081526004602052604090205490565b6000546001600160a01b031633146100e55760405162461bcd60e51b81526020600482015260126024820152712832b936b4b9b9b4b7b7103232b734b2b21760711b60448201526064015b60405180910390fd5b600082815260036020526040902054156101375760405162461bcd60e51b81526020600482015260136024820152722ab9b2b91030b63932b0b23c903b37ba32b21760691b60448201526064016100dc565b60058054600181019091557f036b6384b5eca791c62761152d0c79bb0604c104a5fb6f4eb0703f3154bb3db001829055600082815260036020908152604080832084905583835260049091528120805491610191836101d5565b91905055505050565b600080604083850312156101ad57600080fd5b50508035926020909101359150565b6000602082840312156101ce57600080fd5b5035919050565b60006000198214156101f757634e487b7160e01b600052601160045260246000fd5b506001019056fea2646970667358221220472ff5800aedd55c2901f08b1734ceda790e8416d0c2293770718c96bab8a81e64736f6c634300080b0033",
  "bytecodeSha1": "ad9b5dccd47a3f22d46cd610e4d6676b4b945aa7",
  "compiler": {
    "evm_version": "istanbul",
    "optimizer": {
      "enabled": true,
      "runs": 200
    },
    "version": "0.8.11+commit.d7f03943"
  },
  "contractName": "VoteStorage",
  "language": "Solidity",
  "natspec": {
    "kind": "dev",
    "methods": {},
    "version": 1
  },
  "opcodes": "PUSH1 0x80 PUSH1 0x40 MSTORE CALLVALUE DUP1 ISZERO PUSH2 0x10 JUMPI PUSH1 0x0 DUP1 REVERT JUMPDEST POP PUSH1 0x4 CALLDATASIZE LT PUSH2 0x41 JUMPI PUSH1 0x0 CALLDATALOAD PUSH1 0xE0 SHR DUP1 PUSH4 0x40DEC728 EQ PUSH2 0x46 JUMPI DUP1 PUSH4 0x88B87A74 EQ PUSH2 0x5C JUMPI DUP1 PUSH4 0xB87DAC52 EQ PUSH2 0x71 JUMPI JUMPDEST PUSH1 0x0 DUP1 REVERT JUMPDEST PUSH1 0x5 SLOAD JUMPDEST PUSH1 0x40 MLOAD SWAP1 DUP2 MSTORE PUSH1 0x20 ADD PUSH1 0x40 MLOAD DUP1 SWAP2 SUB SWAP1 RETURN JUMPDEST PUSH2 0x6F PUSH2 0x6A CALLDATASIZE PUSH1 0x4 PUSH2 0x19A JUMP JUMPDEST PUSH2 0x91 JUMP JUMPDEST STOP JUMPDEST PUSH2 0x4A PUSH2 0x7F CALLDATASIZE PUSH1 0x4 PUSH2 0x1BC JUMP JUMPDEST PUSH1 0x0 SWAP1 DUP2 MSTORE PUSH1 0x4 PUSH1 0x20 MSTORE PUSH1 0x40 SWAP1 KECCAK256 SLOAD SWAP1 JUMP JUMPDEST PUSH1 0x0 SLOAD PUSH1 0x1 PUSH1 0x1 PUSH1 0xA0 SHL SUB AND CALLER EQ PUSH2 0xE5 JUMPI PUSH1 0x40 MLOAD PUSH3 0x461BCD PUSH1 0xE5 SHL DUP2 MSTORE PUSH1 0x20 PUSH1 0x4 DUP3 ADD MSTORE PUSH1 0x12 PUSH1 0x24 DUP3 ADD MSTORE PUSH18 0x2832B936B4B9B9B4B7B7103232B734B2B217 PUSH1 0x71 SHL PUSH1 0x44 DUP3 ADD MSTORE PUSH1 0x64 ADD JUMPDEST PUSH1 0x40 MLOAD DUP1 SWAP2 SUB SWAP1 REVERT JUMPDEST PUSH1 0x0 DUP3 DUP2 MSTORE PUSH1 0x3 PUSH1 0x20 MSTORE PUSH1 0x40 SWAP1 KECCAK256 SLOAD ISZERO PUSH2 0x137 JUMPI PUSH1 0x40 MLOAD PUSH3 0x461BCD PUSH1 0xE5 SHL DUP2 MSTORE PUSH1 0x20 PUSH1 0x4 DUP3 ADD MSTORE PUSH1 0x13 PUSH1 0x24 DUP3 ADD MSTORE PUSH19 0x2AB9B2B91030B63932B0B23C903B37BA32B217 PUSH1 0x69 SHL PUSH1 0x44 DUP3 ADD MSTORE PUSH1 0x64 ADD PUSH2 0xDC JUMP JUMPDEST PUSH1 0x5 DUP1 SLOAD PUSH1 0x1 DUP2 ADD SWAP1 SWAP2 SSTORE PUSH32 0x36B6384B5ECA791C62761152D0C79BB0604C104A5FB6F4EB0703F3154BB3DB0 ADD DUP3 SWAP1 SSTORE PUSH1 0x0 DUP3 DUP2 MSTORE PUSH1 0x3 PUSH1 0x20 SWAP1 DUP2 MSTORE PUSH1 0x40 DUP1 DUP4 KECCAK256 DUP5 SWAP1 SSTORE DUP4 DUP4 MSTORE PUSH1 0x4 SWAP1 SWAP2 MSTORE DUP2 KECCAK256 DUP1 SLOAD SWAP2 PUSH2 0x191 DUP4 PUSH2 0x1D5 JUMP JUMPDEST SWAP2 SWAP1 POP SSTORE POP POP POP JUMP JUMPDEST PUSH1 0x0 DUP1 PUSH1 0x40 DUP4 DUP6 SUB SLT ISZERO PUSH2 0x1AD JUMPI PUSH1 0x0 DUP1 REVERT JUMPDEST POP POP DUP1 CALLDATALOAD SWAP3 PUSH1 0x20 SWAP1 SWAP2 ADD CALLDATALOAD SWAP2 POP JUMP JUMPDEST PUSH1 0x0 PUSH1 0x20 DUP3 DUP5 SUB SLT ISZERO PUSH2 0x1CE JUMPI PUSH1 0x0 DUP1 REVERT JUMPDEST POP CALLDATALOAD SWAP2 SWAP1 POP JUMP JUMPDEST PUSH1 0x0 PUSH1 0x0 NOT DUP3 EQ ISZERO PUSH2 0x1F7 JUMPI PUSH4 0x4E487B71 PUSH1 0xE0 SHL PUSH1 0x0 MSTORE PUSH1 0x11 PUSH1 0x4 MSTORE PUSH1 0x24 PUSH1 0x0 REVERT JUMPDEST POP PUSH1 0x1 ADD SWAP1 JUMP INVALID LOG2 PUSH5 0x6970667358 0x22 SLT KECCAK256 SELFBALANCE 0x2F CREATE2 DUP1 EXP 0xED 0xD5 0x5C 0x29 ADD CREATE DUP12 OR CALLVALUE 0xCE 0xDA PUSH26 0xE8416D0C2293770718C96BAB8A81E64736F6C634300080B0033 ",
  "sha1": "cd8b88e68754607a064e819c002a31ad36eda252",
  "source": "// SPDX-License-Identifier: GPL-3.0\n\npragma solidity >=0.7.0 <0.9.0;\n\n\ncontract VoteStorage {\n\n    address private owner;\n    uint private start_date;\n    uint private end_date;\n    mapping(uint256 => uint256) private votes;\n    mapping(uint256 => uint256) private results;\n    uint256[] private voters;\n    uint256[] private candidates;\n\n    constructor(uint _start_date, uint _end_date, uint256[] memory _candidates) {\n        owner = msg.sender;\n        start_date = _start_date;\n        end_date = _end_date;\n        candidates = _candidates;\n    }\n\n    modifier onlyOwner {\n        require(msg.sender == owner, \"Permission denied.\");\n        _;\n    }\n\n    function create_vote(uint256 voter_id, uint256 candidate_id) public onlyOwner {\n        require(votes[voter_id] == 0, \"User already voted.\");\n\n        // Save voter id\n        voters.push(voter_id);\n        // Save vote\n        votes[voter_id] = candidate_id;\n        // Increment candidate vote count\n        results[candidate_id]++;\n    }\n\n    function voters_count() public view returns(uint256) {\n        return voters.length;\n    }\n\n    function get_vote(uint256 candidate_id) public view returns(uint256) {\n        return results[candidate_id];\n    }\n\n}\n",
  "sourcePath": "contracts/VoteStorage.sol",
  "type": "contract"
}